:100000000C94D1000C94F9000C94F9000C94F900B4
:100010000C94F9000C94F9000C94F9000C94F9007C
:100020000C94F9000C94F9000C9421080C9490089D
:100030000C94F9000C94F9000C94F9000C94F9005C
:100040000C94F9000C94F9000C94F9000C94F9004C
:100050000C94F9000C94F9000C94F9000C94D70757
:100060000C94F9000C94F9000C94F9000C94F9002C
:100070000C94F9000C94F9000C94F9000C94F9001C
:100080000C94F9000C94F9000C94F9000C94F9000C
:100090000C94F9000C94F9000C94F9000C94F900FC
:1000A0000C94F9000C94F9000C94F900080B000270
:1000B0000202000009040000010202000005240001
:1000C0001001052401010104240206052406000193
:1000D0000705810310004009040100020A00000026
:1000E00007050202400000070583024000000403E8
:1000F000090412010002EF0201404F1B08920001A7
:1001000001020301537061726B46756E00455854CD
:10011000204C542050616E656C00000000002500EA
:1001200028002B002E0031000000000024002700D2
:100130002A002D00300000000000230026002900C6
:100140002C002F000404040404030405020202022C
:100150000403020202020606060606060404020260
:100160000204040408020110408040102040804036
:1001700080080204018040201002011080102040FD
:1001800040200000000200090F0000030401000CE1
:10019000000000000000000000000000000000005F
:1001A000C20A11241FBECFEFDAE0DEBFCDBF11E0DF
:1001B000A0E0B1E0EAE7F0E202C005900D92A436BB
:1001C000B107D9F722E0A4E6B1E001C01D92A23840
:1001D000B207E1F710E0C1EDD0E004C02197FE01C5
:1001E0000E94F30EC03DD107C9F70E94C00C0C94C9
:1001F0003B100C9400004F925F926F927F928F920F
:100200009F92AF92BF92CF92DF92EF92FF920F93A5
:100210001F93CF93DF93E5010C151D052E053F05B8
:100220000CF051C02801390146015701882309F417
:100230004FC0CA01DB0184159505A605B70514F466
:10024000D301C201B501A40188159905AA05BB0512
:1002500014F4AC01BD01C016D106E206F30664F445
:10026000D501C401841B950BA60BB70BAC01BD01D6
:10027000440D551D661D771D9A01AB0124193509E2
:1002800046095709AFEFBFEF0E94A30EA5019401E5
:1002900024193509460957090E94840E2883398399
:1002A00082E090E0DF91CF911F910F91FF90EF904E
:1002B000DF90CF90BF90AF909F908F907F906F9086
:1002C0005F904F9008952601370148015901AECF44
:1002D00090E080E0E7CFFC0180919B01882311F141
:1002E0003FB7F89482E08093E9002091F200822FDA
:1002F00090E01816190614F481E090E0882339F094
:10030000289844E640939A014091F10040832223CB
:1003100039F02091F200211103C02BE62093E80070
:100320003FBF08958FEF9FEF08953FB7F8948091F6
:10033000960190919701A0919801B091990126B5ED
:10034000A89B05C02F3F19F00196A11DB11D3FBF0D
:10035000BA2FA92F982F8827BC01CD01620F711DDC
:10036000811D911D42E0660F771F881F991F4A95D6
:10037000D1F708958F929F92AF92BF92CF92DF9262
:10038000EF92FF924B015C010E9495016B017C0191
:100390000E9495016C197D098E099F09683E734082
:1003A00081059105A8F321E0821A9108A108B108FE
:1003B00088EEC80E83E0D81EE11CF11C8114910464
:1003C000A104B10429F7FF90EF90DF90CF90BF9088
:1003D000AF909F908F90089540918B0150918C0128
:1003E0002091890130918A0142175307B4F490910A
:1003F000E8009570E1F39091E80092FD19C08093B8
:10040000F10080918B0190918C0101968F73992757
:10041000892B19F48EEF8093E80080918B019091E5
:100420008C01019690938C0180938B0181E008955B
:1004300080E00895EF92FF920F931F93CF93DF9385
:10044000F82E192FE62E042F81E0860F880F0E94C8
:10045000EC0183E00E94EC01CF2DD12FEC0EFD2E9C
:10046000F11CCE15DF05B9F007FF13C0FE01849122
:100470000E94EC01182F80E00E94EC01812321965C
:100480008111EFCFDF91CF911F910F91FF90EF90EE
:1004900008958881EDCF81E0F5CFDF92EF92FF9252
:1004A0000F931F93CF93DF93D82E8A01EB017B012B
:1004B000E40EF51ECE15DF0559F0D7FE12C0FE0181
:1004C00084910E94EC0121968111F4CF0FEF1FEF70
:1004D000C801DF91CF911F910F91FF90EF90DF90B6
:1004E00008958881EECF2FB7F89487708093E90044
:1004F0009091E800892F807295FF04C09091F200DE
:1005000080E4891B2FBF08957F928F929F92AF92B4
:10051000BF92CF92DF92EF92FF920F931F93CF93F0
:10052000DF93C82E8B017A0180919B01811110C04D
:100530008FEF9FEFDF91CF911F910F91FF90EF9081
:10054000DF90CF90BF90AF909F908F907F90089555
:1005500080918F0180FF05C08091E00082608093D0
:10056000E000CE2DDF2DD12C8AEFB82E8C2D877098
:10057000982E8C2D8072882E8C2D8074782E9AE384
:10058000A92E209719F4DD2009F452C08C2D0E9469
:10059000730281110AC0BA94BB2051F261E070E08D
:1005A00080E090E00E94BA01ECCF8C171D0611F09C
:1005B0000CF08C2F9FB7F8949092E9002091E800FE
:1005C00025FD02C09FBFDDCF282F30E0C21BD30B1B
:1005D000882029F08150A0F01092F100FBCFF801A3
:1005E000C7FC0AC0815050F041914093F100FACF0E
:1005F00044914093F10031968150D0F7020F131FC0
:10060000DD2021F0A092E800D12CDCCF8091E80021
:1006100085FD07C0A092E800DD24D394209791F2D5
:10062000F3CF209779F6772069F2A092E800CACF3D
:100630005D9884E680938E01C7017CCF615030F0D5
:100640002091F100FC0120830196F8CF289884E6E0
:1006500080939A0108958091810181110DC082E0FB
:1006600080937D0184E080937E011092800110923E
:100670007F0181E0809381018DE791E008950F93E0
:100680001F93CF93DF931F92CDB7DEB782E08983AC
:1006900042E450E06CEA70E080E80E944D020E9463
:1006A0002B03DC0112960D911C910115110589F0A7
:1006B000D801ED91FC910280F381E02DBE016F5FC6
:1006C0007F4FC801099597FD04C0F8010085118589
:1006D000ECCF89810F90DF91CF911F910F910895F9
:1006E000CF93DF93EC0180911201882331F083E0F6
:1006F0000E9484021816190634F081E090E09B8372
:100700008A8380E090E0DF91CF910895CF93DF93CB
:100710001F92CDB7DEB76983DC01ED91FC910280B9
:10072000F381E02D41E050E0BE016F5F7F4F0995FE
:100730000F90DF91CF91089583E08093E90080913D
:10074000F200882319F08AE38093E800089583E09B
:100750000E94730290E00895CF93DF931F92CDB76C
:10076000DEB7FC018485958597FD08C02FEF3FEF2C
:10077000358724870F90DF91CF910895CE010196A0
:100780000E946B01019719F4898190E0F3CF8FEFFC
:100790009FEFF0CF0F931F93CF93DF931F92CDB7AF
:1007A000DEB78C01FC018485958597FF0BC0CE01D7
:1007B00001960E946B01019771F4898190E0F80124
:1007C00095878487F801848595850F90DF91CF9177
:1007D0001F910F9108958FEF9FEFF1CFFC0184855A
:1007E000958597FD0BC09FB7F89482E08093E90050
:1007F0008091F2009FBF90E0019608959FB7F89412
:1008000082E08093E9008091F2009FBF90E008951C
:10081000DC01FB0112962C91129784819581281797
:10082000190641F491818081813A31F49D7F81E004
:10083000913009F080E008958132E1F79B3029F48E
:1008400082811F968C9381E008959A3099F7828176
:1008500050968C93F8CFDC01FB0188E4808389E417
:10086000818384E482831D969C911D979F709F5B7A
:1008700093831D968D919C9124E0969587952A955A
:10088000E1F78F708F5B848385E00895EF92FF928C
:100890000F931F93CF93DF93FB012081213889F5BC
:1008A0002381223271F5DC0112964C91248135812D
:1008B0004217130631F58C01FC01C385D485F12C58
:1008C000E12C209791F04C815D816A817B818E8142
:1008D000811180E80E944D028F3F980759F0E80E81
:1008E000F91E0990D881C02DECCF81E0D8011F9668
:1008F0008C93C701DF91CF911F910F91FF90EF90E3
:10090000089590E080E0F6CFCF93DF93CDB7DEB7C8
:1009100069970FB6F894DEBF0FBECDBFFC01DB01B7
:100920008C918F5F8C939E012D5F3F4F8DE0D9019D
:100930001D928A95E9F729E0298384E08A8391E072
:100940009D8383E08E832A8721E22B879C879D8766
:100950009F8722E2288B27E02B8B25E02C8B8E8B28
:1009600020E430E0388F2F8B998F82818B8395859F
:100970008685998B8A8B838180688D8B49E150E0D5
:10098000BE016F5F7F4F80E00E944D0269960FB6F7
:10099000F894DEBF0FBECDBFDF91CF910895CF9306
:1009A000DF9380917501811167C081E080936801B8
:1009B000809369012EE631E030936B0120936A0148
:1009C00010926D0110926C012DE131E030936501C0
:1009D000209364011092700110926F0110927201C5
:1009E00010927101809373018093740181EC809364
:1009F0006E010E942B03FC01818190916801482FB8
:100A0000490F5527551F483051059CF5A281B381E8
:100A1000109709F524E631E0338322832081209367
:100A200066018093670180916901820F8083209124
:100A30006A01A22FB0916B018A2F821B8917C8F41B
:100A400081813D91C82FD0E0C050DF4F38838F5F48
:100A50008183F2CFD90118962D913C9119972115D8
:100A60003105C1F724E631E019963C932E9318978F
:100A7000D5CF81E08093750184E691E0DF91CF913D
:100A800008954F925F926F927F928F929F92AF9252
:100A9000BF92CF92DF92EF92FF920F931F93CF936B
:100AA000DF93CDB7DEB74DB65EB680917D022DB730
:100AB0003EB7281B31090FB6F8943EBF0FBE2DBFBD
:100AC0008DB79EB701963C0180902002912C8091B9
:100AD0001C0290911D02D301FC019F01281B390BC0
:100AE000281539051CF421912D93F7CF809121020F
:100AF000882359F1809118029091190228E097FDFE
:100B000009C068E671E00E94DF0E6DE270E00E94AD
:100B1000DF0E262F80911A0290911B0268E097FD4C
:100B200008C068E671E00E94DF0E6DE270E00E948E
:100B3000DF0EF301E80DF91D90E1699FB00111246A
:100B4000262B2083F40131964F015301A80CB91CC8
:100B5000C0902802D0902902E0902A02F0902B0247
:100B60000091240210912502209126023091270243
:100B70004091EC015091ED016091EE017091EF0117
:100B80008091220281700E94FB00880E991E530101
:100B9000A80CB91CC0903002D0903102E090320213
:100BA000F090330200912C0210912D0220912E0220
:100BB00030912F024091F0015091F1016091F201CA
:100BC0007091F30180912202869581700E94FB0052
:100BD000880E991E5301A80CB91CC0903802D09001
:100BE0003902E0903A02F0903B02009134021091F9
:100BF000350220913602309137024091F401509134
:100C0000F5016091F6017091F7018091220282FB5B
:100C1000882780F90E94FB00880E991E5301A80CBA
:100C2000B91CC0904002D0904102E0904202F09086
:100C3000430200913C0210913D0220913E0230910E
:100C40003F024091F8015091F9016091FA017091D1
:100C5000FB018091220283FB882780F90E94FB0020
:100C6000880E991E5301A80CB91CC0904802D09060
:100C70004902E0904A02F0904B0200914402109128
:100C8000450220914602309147024091FC0150916B
:100C9000FD016091FE017091FF0180912202829519
:100CA00081700E94FB00880E991E5301A80CB91C8C
:100CB000C0905002D0905102E0905202F090530246
:100CC00000914C0210914D0220914E0230914F0242
:100CD0004091000250910102609102027091030262
:100CE0008091220285FB882780F90E94FB00880EF4
:100CF000991E5301A80CB91CC0905802D0905902FB
:100D0000E0905A02F0905B0200915402109155025B
:100D100020915602309157024091080250910902E9
:100D200060910A0270910B028091230281700E94EF
:100D3000FB00880E991E5301A80CB91CC0906002DC
:100D4000D0906102E0906202F090630200915C0238
:100D500010915D0220915E0230915F024091040289
:100D60005091050260910602709107028091230262
:100D7000869581700E94FB00880E991E5301A80C75
:100D8000B91CC0906802D0906902E0906A02F090AD
:100D90006B0200916402109165022091660230910D
:100DA000670240910C0250910D0260910E02709109
:100DB0000F028091230282FB882780F90E94FB00AA
:100DC000880E991E5301A80CB91CC0907002D090D7
:100DD0007102E0907202F090730200916C02109127
:100DE0006D0220916E0230916F024091100250917D
:100DF000110260911202709113028091230283FB11
:100E0000882780F90E94FB00880D991D5301A80EC8
:100E1000B91EC0907802D0907902E0907A02F090EA
:100E20007B0200917402109175022091760230913C
:100E30007702409114025091150260911602709150
:100E4000170280912302829581700E94FB000E940C
:100E5000CF044C0140917D0280917C0250E05A0108
:100E6000FFEFAF1ABF0A2DB73EB72A193B090FB6DD
:100E7000F8943EBF0FBE2DBF0DB71EB70F5F1F4FBB
:100E8000EDB7FEB78183B301C80101960E9432100D
:100E9000F4018381A501B80180640E9484020FB629
:100EA000F8945EBE0FBE4DBEDF91CF911F910F91A2
:100EB000FF90EF90DF90CF90BF90AF909F908F907A
:100EC0007F906F905F904F900895FC0101900020FB
:100ED000E9F73197AF01481B590BBC018CE991E050
:100EE0000C9470038F929F92AF92BF920F931F93B7
:100EF000CF93DF93CDB7DEB7A1970FB6F894DEBFDF
:100F00000FBECDBF19A2423008F44AE08E010F5D3A
:100F10001F4F842E912CB12CA12CA50194010E946D
:100F2000AE0EE62FB901CA01EA30F4F4E05DD80153
:100F3000EE938D01232B242B252B79F790E080E075
:100F4000109719F0CD010E946507A1960FB6F8948D
:100F5000DEBF0FBECDBFDF91CF911F910F91BF902C
:100F6000AF909F908F900895E95CE1CFCF92DF9290
:100F7000EF92FF92CF93DF936B017C016DE28CE9DE
:100F800091E00E948603EC0166277727CB016C195C
:100F90007D098E099F094AE00E9472078C0F9D1FF0
:100FA000DF91CF91FF90EF90DF90CF9008951F9247
:100FB0000F920FB60F9211242F933F938F939F930D
:100FC000AF93BF938091920190919301A09194016E
:100FD000B09195013091910123E0230F2D3758F501
:100FE0000196A11DB11D20939101809392019093D0
:100FF0009301A0939401B0939501809196019091F3
:101000009701A0919801B09199010196A11DB11D80
:101010008093960190939701A0939801B0939901C2
:10102000BF91AF919F918F913F912F910F900FBEE4
:101030000F901F90189526E8230F0296A11DB11D51
:10104000D2CF1F920F920FB60F9211248F939F93BE
:101050008091E1009091E100937F9093E10083FF04
:101060000FC01092E90091E09093EB001092EC0019
:1010700092E39093ED0010929B0198E09093F00022
:1010800082FF22C093E09093E9009091F2009923AF
:1010900019F09AE39093E80090918E01992341F022
:1010A00090918E01915090938E01911101C05D9AA3
:1010B00090919A01992341F090919A0191509093C7
:1010C0009A01911101C0289A84FF18C08091E20012
:1010D0008E7E81608093E2008091E1008F7E80931C
:1010E000E10080918F018E7E806180938F019F91BE
:1010F0008F910F900FBE0F901F90189580FFF7CF24
:101100008091E2008E7E80618093E2008091E10018
:101110008E7E8093E10080918F018E7E8160E5CF8D
:101120001F920F920FB60F921124CF92DF92EF927F
:10113000FF920F931F932F933F934F935F936F9360
:101140007F938F939F93AF93BF93EF93FF93CF932F
:10115000DF93CDB7DEB76C97DEBFCDBF1092E9004D
:101160008091E80083FF25C068E0CE0145960E948B
:101170001E0382EF8093E8008D8987FF39C090912C
:10118000E80090FFFCCF982F907609F034C19E893B
:101190004F89588D2F89F88C911131C0803861F5B5
:1011A000809190018093F1001092F1008EEF809376
:1011B000E8006C960FB6F894DEBF0FBECDBFDF918E
:1011C000CF91FF91EF91BF91AF919F918F917F91BF
:1011D0006F915F914F913F912F911F910F91FF90D0
:1011E000EF90DF90CF900F900FBE0F901F9018954B
:1011F0009EEF9093E800C7CF1092F100D5CF9130C9
:1012000059F48111D3CF4130510581F6809190017D
:101210008D7F80939001CACF933049F48111C6CF5E
:101220004130510519F6809190018260F2CF9530DE
:1012300041F48091E80080FFFCCF20682093E30018
:10124000B5CF963009F0A9C00B8D1C8D22E010920D
:10125000E90010928C0110928B01F2122EC01092B4
:101260008A01109289010E943F031F8299E09983AD
:10127000FA8291E09E8390EA98879AEF998720916D
:101280008B0130918C01275F3F4F3C832B838D83F3
:101290001092E90010928C0110928B0110938A0138
:1012A0000093890149E050E0BE016F5F7F4F80E00D
:1012B0000E944D020E943F0379CF10938A01009350
:1012C00089010E942B03DC0112960D911C910115DE
:1012D000110509F451C1D801ED91FC910480F5810B
:1012E000E02DBE016B5E7F4FC8010995009709F0A4
:1012F0003EC1F80100851185EACFF3E0FF120EC070
:101300008F89882309F440C0823061F440E86CE0A2
:101310008DE091E00E941A02811148CF81E2809312
:10132000EB0047CF813029F440E868E084E091E0A9
:10133000F1CF833099F70E942B03DC011296ED90D8
:10134000FC908E010F5F1F4F6801E114F10479F0EA
:10135000D701ED91FC910680F781E02DB801C7011E
:101360000995080F111DF701E084F184EECFD80133
:101370001C92F60101900020E9F73197BF016C192A
:101380007D0940E0C601C6CF6EEE70E0FB014491DE
:1013900050E080E80E944D0209CF973009F4BECF9B
:1013A000983021F481E08093F10000CF993009F06A
:1013B000FDCE837009F0B2CFE1E0F1E081E031E0F1
:1013C00096E32191222371F08093E9003093EB00A2
:1013D000DF0111972C912093EC009093ED008F5F2B
:1013E000873079F78EE78093EA001092EA008F89C0
:1013F00080939B01DBCE8B8D9C8D1092E900109227
:101400008C0110928B0190938A0180938901898DC0
:10141000811192C08E899D89913A49F4813209F0F7
:101420007DCF47E050E06BE071E080E0B3CF9132D8
:1014300009F074CF833269F48F89988DB0E0A0E011
:101440008093070190930801A0930901B0930A01CA
:10145000ADCE803269F48091E80082FFFCCF67E076
:101460008BE091E00E941E038BEF8093E8009ECEFC
:10147000823209F09BCE8F8980931201EEEFFFE755
:10148000859194918B3F9C4D51F1E0E0F8E0809183
:101490000B0190910C01A0910D01B0910E01803BC8
:1014A0009440A105B105F1F48091120180FD1AC0AC
:1014B000EE3F8AE0F80789F587E797E79183808315
:1014C0008091600080938D0188E19BE00FB6F894D5
:1014D000A895809360000FBE9093600067CEEEEFFA
:1014E000FAE0D5CF808191818737974709F05ECEAA
:1014F000A8958091600088618093600080918D0143
:1015000080936000EE3F2AE0F20789F08091FE0AA6
:101510009091FF0A9183808349CE808191818737A2
:10152000980751F29093FF0A8093FE0AC5CF10925C
:10153000FF0A1092FE0A3ACE0E942B03DC0112969B
:101540000D911C910115110509F4E8CED801ED911A
:10155000FC910190F081E02DBE016B5E7F4FC801D0
:101560000995811123CEF80100851185EBCF18165E
:1015700019060CF41BCED2CEF1E0FF12BECE62EF04
:1015800070E004CFEF92FF920F931F93CF93DF93FE
:10159000CDB7DEB7C659D1090FB6F894DEBF0FBE7E
:1015A000CDBF10929F0110929E0188EE93E0A0E0C3
:1015B000B0E08093A0019093A101A093A201B09309
:1015C000A30187E491E090939D0180939C018FEFAC
:1015D0009FEF9093A9018093A80110921D02109291
:1015E0001C021092200210922402109225021092E6
:1015F0002602109227028FEF93E0A0E0B0E08093E4
:10160000280290932902A0932A02B0932B021092F1
:101610002C0210922D0210922E0210922F02809313
:10162000300290933102A0933202B09333021092B1
:1016300034021092350210923602109237028093D3
:10164000380290933902A0933A02B0933B02109271
:101650003C0210923D0210923E0210923F02809393
:10166000400290934102A0934202B0934302109231
:101670004402109245021092460210924702809353
:10168000480290934902A0934A02B0934B021092F1
:101690004C0210924D0210924E0210924F02809313
:1016A000500290935102A0935202B09353021092B1
:1016B00054021092550210925602109257028093D3
:1016C000580290935902A0935A02B0935B02109271
:1016D0005C0210925D0210925E0210925F02809393
:1016E000600290936102A0936202B0936302109231
:1016F0006402109265021092660210926702809353
:10170000680290936902A0936A02B0936B021092F0
:101710006C0210926D0210926E0210926F02809312
:10172000700290937102A0937202B09373021092B0
:1017300074021092750210927602109277028093D2
:10174000780290937902A0937A02B0937B0243E0EF
:1017500040937C0290E190931F021092210210921C
:1017600022021092230225E0298381E08A8339E056
:101770003B832C8351EA5D838E8355E85F834887E2
:1017800029873A8729E12B878C8729E22D879E8735
:1017900025E12F87188A25E2298B8A8B25E72B8B59
:1017A0008C8B85E98D8B9E8B85E58F8B188E85E6DE
:1017B000898F1A8E81E88B8F82E08C8F80EC8D8FE1
:1017C0008DE190E00E940D0F7C018DE1FE013196CC
:1017D000D70101900D928A95E1F787E090E00E9491
:1017E0000D0F8C01DC0111961C921E921396FC9237
:1017F000EE9212978DE190E015969C938E9314973C
:1018000016961C920E94CF04FC01A385B485109704
:1018100009F09EC01487038785859685D8011496A4
:101820002D913C91820F931F9687858790911F027F
:10183000892F869586958695977009F091C080933B
:10184000200210912002812F90E00E940D0F9093B2
:101850001D0280931C0281E090912102911101C030
:1018600080E0810F80937D021092EC011092ED01D7
:101870001092EE011092EF011092F0011092F1011E
:101880001092F2011092F3011092F4011092F501FE
:101890001092F6011092F7011092F8011092F901DE
:1018A0001092FA011092FB011092FC011092FD01BE
:1018B0001092FE011092FF0110920002109201029C
:1018C000109202021092030210920402109205027A
:1018D000109206021092070210920802109209025A
:1018E00010920A0210920B0210920C0210920D023A
:1018F00010920E0210920F0210921002109211021A
:1019000010921202109213021092140210921502F9
:1019100010921602109217028FEF9FEF9093190208
:101920008093180290931B0280931A0290E080E04B
:101930002091200228171906A9F0A4F0E0911C02BA
:10194000F0911D02E80FF91F10820196F1CFDC0122
:101950008D919C9111970097D1F70D931C935CCFBB
:101960008F5F6DCFCA56DF4F0FB6F894DEBF0FBE44
:10197000CDBFDF91CF911F910F91FF90EF90089510
:10198000789484B5826084BD84B5816084BD85B55A
:10199000826085BD85B5816085BD80916E00816066
:1019A00080936E001092810080918100826080930C
:1019B000810080918100816080938100809180000E
:1019C000816080938000809191008260809391007B
:1019D000809191008160809391008091900081605E
:1019E000809390008091C10084608093C1008091B9
:1019F000C10082608093C1008091C10081608093AA
:101A0000C1008091C30081608093C3008091C000B9
:101A100082608093C0008091C20081608093C20088
:101A200080917A00846080937A0080917A0082604D
:101A300080937A0080917A00816080937A0080910F
:101A40007A00806880937A0010929B011092900136
:101A500010928F018091D70081608093D70080EA37
:101A60008093D80089B5806189BD89B5826089BDC0
:101A700009B400FEFDCF61E070E080E090E00E94DC
:101A8000BA018091D8008F7C80618093D8008091CA
:101A9000E000807F8093E0008091E1008E7E809363
:101AA000E1008DE08093E200559A209A81E08093D6
:101AB0001E020E9441058FEF9FEF9093A901809332
:101AC000A801A5E2B1E08D919D919927FC01ED5906
:101AD000FE4F24918C5B9E4FFC0184918823C9F0BA
:101AE00090E0880F991FFC01E85DFE4F45915491ED
:101AF000FC01E65EFE4FC591D4919FB7F894FA01C0
:101B00003081822F809583238083E8812E2B288348
:101B10009FBFF1E0A334BF07B1F6812C912C540193
:101B2000839400E010E0C5E2D1E0C12CD12C760115
:101B3000899199919927FC01EE57FE4F4491FC0140
:101B4000ED59FE4F24918C5B9E4FFC0184919C2D9E
:101B500030911F02811106C0931708F4B4C0772496
:101B600073942FC04423E9F041504F30D0F4E42F58
:101B7000F0E0E354F24F0C94F30E1C0E200ECC0D4B
:101B8000140E180ED10DD10DD10D230E290E2D0ED0
:101B9000310E370ED10D3B0E409180004F774093B0
:101BA0008000E82FF0E0EE0FFF1FEA5CFE4FA591EA
:101BB000B491EC912E2309F4CFCF931708F461C0B0
:101BC000712C85E591E00E9465074AE0C701B601E6
:101BD0000E9472078DE591E00E946507672D70E015
:101BE00090E080E04AE00E94720780E691E00E9467
:101BF00065073FEFC31AD30AE30AF30A4FE0C4169E
:101C0000D104E104F10409F093CF0E94410564E19D
:101C100070E080E090E00E94BA010115110509F41E
:101C200082CF0E9400007FCF409180004F7DB7CFD0
:101C300040918000477FB3CF44B54F7744BDB1CFCB
:101C400044B54F7DFBCF409190004F77409390007B
:101C5000A8CF409190004F7DF9CF40919000477FF1
:101C6000F5CF4091C0004F774093C0009ACF40918C
:101C7000C0004F7DF9CF4091C200477F4093C20022
:101C800090CFE92FE695E695E69520911C023091DC
:101C90001D02E20FF32FF11D9770A501940104C0FE
:101CA000220F331F441F551F9A95D2F7922F9095FC
:101CB00080818923808380911E02882309F480CF4C
:101CC0000E9441057DCFE92FE695E695E6952091A6
:101CD0001C0230911D02E20FF32FF11D9770A50138
:101CE000940104C0220F331F441F551F9A95D2F749
:101CF000C9012081822B808370901E02772009F415
:101D00002ECF0E9441055DCF052E97FB1EF4009457
:101D10000E949B0E57FD07D00E94AE0E07FC03D019
:101D20004EF40C949B0E50954095309521953F4F65
:101D30004F4F5F4F089590958095709561957F4FB7
:101D40008F4F9F4F08950E94D00EA59F900DB49F76
:101D5000900DA49F800D911D11240895A1E21A2ECB
:101D6000AA1BBB1BFD010DC0AA1FBB1FEE1FFF1F3F
:101D7000A217B307E407F50720F0A21BB30BE40B8F
:101D8000F50B661F771F881F991F1A9469F76095D6
:101D90007095809590959B01AC01BD01CF01089590
:101DA000A29FB001B39FC001A39F700D811D11249C
:101DB000911DB29F700D811D1124911D089597FBF7
:101DC000072E16F4009407D077FD09D00E94F90E73
:101DD00007FC05D03EF4909581959F4F089570952E
:101DE00061957F4F0895EE0FFF1F0590F491E02D50
:101DF0000994AA1BBB1B51E107C0AA1FBB1FA61752
:101E0000B70710F0A61BB70B881F991F5A95A9F7A3
:101E100080959095BC01CD0108950F931F93CF93AA
:101E2000DF938230910510F482E090E0E09180022F
:101E3000F091810230E020E0B0E0A0E0309799F42A
:101E40002115310509F44AC0281B390B243031050E
:101E5000D8F58A819B816115710589F1FB01938316
:101E60008283FE0111C04081518102811381481794
:101E70005907E0F04817590799F4109761F0129646
:101E80000C93129713961C933296CF01DF91CF914A
:101E90001F910F9108950093800210938102F4CF57
:101EA0002115310551F04217530738F0A901DB0124
:101EB0009A01BD01DF01F801C1CFEF01F9CF909385
:101EC000810280938002CDCFFE01E20FF31F819348
:101ED00091932250310939832883D7CF20917E02F4
:101EE00030917F02232B41F420911501309116018E
:101EF00030937F0220937E022091130130911401D0
:101F00002115310541F42DB73EB74091170150918D
:101F10001801241B350BE0917E02F0917F02E2173D
:101F2000F307A0F42E1B3F0B2817390778F0AC01FC
:101F30004E5F5F4F2417350748F04E0F5F1F5093D9
:101F40007F0240937E02819391939FCFF0E0E0E087
:101F50009CCFCF93DF930097E9F0FC013297138277
:101F60001282A0918002B0918102ED0130E020E068
:101F70001097A1F420813181820F931F20917E025E
:101F800030917F022817390709F061C0F0937F0272
:101F9000E0937E02DF91CF910895EA01CE17DF072B
:101FA000E8F54A815B819E0141155105B1F7E901D0
:101FB000FB83EA8349915991C40FD51FEC17FD07A4
:101FC00061F4808191810296840F951FE9019983C4
:101FD0008883828193819B838A83F0E0E0E012967C
:101FE0008D919C9113970097B9F52D913C91119784
:101FF000CD010296820F931F20917E0230917F02C5
:102000002817390739F6309751F51092810210924E
:102010008002B0937F02A0937E02BCCFD383C283A1
:1020200040815181840F951FC817D90761F44E5F15
:102030005F4F88819981480F591F518340838A815E
:102040009B81938382832115310509F0B0CFF093F2
:102050008102E09380029ECFFD01DC01C0CF13829C
:102060001282D7CFFB01DC0102C001900D924150DA
:0A2070005040D8F70895F894FFCF10
:10207A0000C18081000000FFFFFFFF00E1000000B7
:10208A0000000000008202800000000000080484B2
:10209A000446042B0402000300040006000700089B
:1020AA000009000A0010000E000F001200130014AD
:1020BA000015000000000086037003A7039C03EECE
:1020CA0003AC03CA03427574746F6E20003A200091
:0420DA000D0A0000EB
:00000001FF
